:1000000000308A00232800000030831686000D305F
:100010008312A0008A110A12382823308400831327
:100020000008031920280630F800F701F70B1628FE
:10003000F80B15287B30F700F70B1C28800B1328D2
:100040008A110A124B2803081F39830083160317ED
:100050000908C039890003131F129F1200300317CB
:100060008800831287018801890183130313042800
:100070000310200DA200F701A01B771477082204BB
:10008000A000831686018312200886000230A20099
:0E009000FA30A3000D28A20B48283828630080
:04400E00E22FFF3F5F
:00000001FF
;PIC16F887
;CRC=7A7C  CREATED="24-feb.-22 10:18"
