:1000000000308A001A28000023308400831300087F
:10001000031917280630F800F701F70B0D28F80B25
:100020000C287B30F700F70B1328800B0A288A1165
:100030000A12472803081F3983008316031709088B
:10004000C039890003131F129F1200300317880064
:1000500083128701880189018313003083160313FB
:1000600086000D308312A0000310200DA200F701BE
:10007000A01B771477082204A00083168601831240
:10008000200886000230A200FA30A3000428A20B48
:060090004428342863003F
:04400E00E22FFF3F5F
:00000001FF
;PIC16F887
;CRC=A131  CREATED="29-ago.-23 14:18"
