:1000000000308A001A28000023308400831300087F
:10001000031917280630F800F701F70B0D28F80B25
:100020000C287B30F700F70B1328800B0A288A1165
:100030000A123D2803081F39830083161F149F14DA
:100040001F159F1107309C008313003086000D3070
:100050008312A0000310200DA200F701A01B77144B
:1000600077082204A00083168601831220088600E8
:100070000230A200FA30A3000428A20B3A282A2852
:0200800063001B
:02400E00723FFF
:00000001FF
;PIC16F877A
;CRC=DF8E  CREATED="29-ago.-23 14:07"
