:1000000000308A00232800000030831686000D305F
:100010008312A0008A110A1230282330840083132F
:100020000008031920280630F800F701F70B1628FE
:10003000F80B15287B30F700F70B1C28800B1328D2
:100040008A110A12432803081F39830083161F14DC
:100050009F141F159F1107309C00831383120428DF
:100060000310200DA200F701A01B771477082204CB
:10007000A000831686018312200886000230A200A9
:0E008000FA30A3000D28A20B402830286300A0
:02400E00723FFF
:00000001FF
;PIC16F877A
;CRC=FB73  CREATED="24-feb.-22 10:17"
